{
  "contractName": "Crowdfunding",
  "abi": [
    {
      "anonymous": false,
      "inputs": [
        {
          "indexed": false,
          "internalType": "uint256",
          "name": "id",
          "type": "uint256"
        },
        {
          "indexed": false,
          "internalType": "address",
          "name": "creator",
          "type": "address"
        },
        {
          "indexed": false,
          "internalType": "uint256",
          "name": "goal",
          "type": "uint256"
        },
        {
          "indexed": false,
          "internalType": "uint256",
          "name": "startTime",
          "type": "uint256"
        },
        {
          "indexed": false,
          "internalType": "uint256",
          "name": "endTime",
          "type": "uint256"
        }
      ],
      "name": "CampaignCreated",
      "type": "event"
    },
    {
      "anonymous": false,
      "inputs": [
        {
          "indexed": false,
          "internalType": "uint256",
          "name": "id",
          "type": "uint256"
        }
      ],
      "name": "FundsClaimed",
      "type": "event"
    },
    {
      "anonymous": false,
      "inputs": [
        {
          "indexed": false,
          "internalType": "uint256",
          "name": "id",
          "type": "uint256"
        },
        {
          "indexed": false,
          "internalType": "address",
          "name": "contributor",
          "type": "address"
        },
        {
          "indexed": false,
          "internalType": "uint256",
          "name": "amount",
          "type": "uint256"
        }
      ],
      "name": "FundsRefunded",
      "type": "event"
    },
    {
      "anonymous": false,
      "inputs": [
        {
          "indexed": false,
          "internalType": "uint256",
          "name": "id",
          "type": "uint256"
        },
        {
          "indexed": false,
          "internalType": "address",
          "name": "contributor",
          "type": "address"
        },
        {
          "indexed": false,
          "internalType": "uint256",
          "name": "amount",
          "type": "uint256"
        }
      ],
      "name": "PledgeReceived",
      "type": "event"
    },
    {
      "anonymous": false,
      "inputs": [
        {
          "indexed": false,
          "internalType": "uint256",
          "name": "id",
          "type": "uint256"
        },
        {
          "indexed": false,
          "internalType": "address",
          "name": "voter",
          "type": "address"
        },
        {
          "indexed": false,
          "internalType": "bool",
          "name": "vote",
          "type": "bool"
        }
      ],
      "name": "Voted",
      "type": "event"
    },
    {
      "anonymous": false,
      "inputs": [
        {
          "indexed": false,
          "internalType": "uint256",
          "name": "id",
          "type": "uint256"
        }
      ],
      "name": "VotingOpened",
      "type": "event"
    },
    {
      "inputs": [],
      "name": "campaignCount",
      "outputs": [
        {
          "internalType": "uint256",
          "name": "",
          "type": "uint256"
        }
      ],
      "stateMutability": "view",
      "type": "function",
      "constant": true
    },
    {
      "inputs": [
        {
          "internalType": "uint256",
          "name": "",
          "type": "uint256"
        }
      ],
      "name": "campaigns",
      "outputs": [
        {
          "internalType": "address payable",
          "name": "creator",
          "type": "address"
        },
        {
          "internalType": "uint256",
          "name": "goal",
          "type": "uint256"
        },
        {
          "internalType": "uint256",
          "name": "pledged",
          "type": "uint256"
        },
        {
          "internalType": "uint256",
          "name": "startTime",
          "type": "uint256"
        },
        {
          "internalType": "uint256",
          "name": "endTime",
          "type": "uint256"
        },
        {
          "internalType": "bool",
          "name": "claimed",
          "type": "bool"
        },
        {
          "internalType": "uint256",
          "name": "yesVotes",
          "type": "uint256"
        },
        {
          "internalType": "uint256",
          "name": "noVotes",
          "type": "uint256"
        },
        {
          "internalType": "bool",
          "name": "votingOpen",
          "type": "bool"
        },
        {
          "internalType": "bool",
          "name": "exists",
          "type": "bool"
        }
      ],
      "stateMutability": "view",
      "type": "function",
      "constant": true
    },
    {
      "inputs": [
        {
          "internalType": "uint256",
          "name": "_goal",
          "type": "uint256"
        },
        {
          "internalType": "uint256",
          "name": "_durationInDays",
          "type": "uint256"
        }
      ],
      "name": "createCampaign",
      "outputs": [],
      "stateMutability": "nonpayable",
      "type": "function"
    },
    {
      "inputs": [
        {
          "internalType": "uint256",
          "name": "_id",
          "type": "uint256"
        }
      ],
      "name": "pledge",
      "outputs": [],
      "stateMutability": "payable",
      "type": "function",
      "payable": true
    },
    {
      "inputs": [
        {
          "internalType": "uint256",
          "name": "_id",
          "type": "uint256"
        }
      ],
      "name": "openVoting",
      "outputs": [],
      "stateMutability": "nonpayable",
      "type": "function"
    },
    {
      "inputs": [
        {
          "internalType": "uint256",
          "name": "_id",
          "type": "uint256"
        },
        {
          "internalType": "bool",
          "name": "_vote",
          "type": "bool"
        }
      ],
      "name": "vote",
      "outputs": [],
      "stateMutability": "nonpayable",
      "type": "function"
    },
    {
      "inputs": [
        {
          "internalType": "uint256",
          "name": "_id",
          "type": "uint256"
        }
      ],
      "name": "claimFunds",
      "outputs": [],
      "stateMutability": "nonpayable",
      "type": "function"
    },
    {
      "inputs": [
        {
          "internalType": "uint256",
          "name": "_id",
          "type": "uint256"
        }
      ],
      "name": "refund",
      "outputs": [],
      "stateMutability": "nonpayable",
      "type": "function"
    },
    {
      "inputs": [
        {
          "internalType": "uint256",
          "name": "_id",
          "type": "uint256"
        }
      ],
      "name": "getCampaign",
      "outputs": [
        {
          "internalType": "address",
          "name": "creator",
          "type": "address"
        },
        {
          "internalType": "uint256",
          "name": "goal",
          "type": "uint256"
        },
        {
          "internalType": "uint256",
          "name": "pledged",
          "type": "uint256"
        },
        {
          "internalType": "uint256",
          "name": "startTime",
          "type": "uint256"
        },
        {
          "internalType": "uint256",
          "name": "endTime",
          "type": "uint256"
        },
        {
          "internalType": "bool",
          "name": "claimed",
          "type": "bool"
        },
        {
          "internalType": "bool",
          "name": "votingOpen",
          "type": "bool"
        },
        {
          "internalType": "uint256",
          "name": "yesVotes",
          "type": "uint256"
        },
        {
          "internalType": "uint256",
          "name": "noVotes",
          "type": "uint256"
        },
        {
          "internalType": "bool",
          "name": "exists",
          "type": "bool"
        }
      ],
      "stateMutability": "view",
      "type": "function",
      "constant": true
    },
    {
      "inputs": [
        {
          "internalType": "uint256",
          "name": "_id",
          "type": "uint256"
        },
        {
          "internalType": "address",
          "name": "_contributor",
          "type": "address"
        }
      ],
      "name": "getPledgeAmount",
      "outputs": [
        {
          "internalType": "uint256",
          "name": "",
          "type": "uint256"
        }
      ],
      "stateMutability": "view",
      "type": "function",
      "constant": true
    },
    {
      "inputs": [
        {
          "internalType": "uint256",
          "name": "_id",
          "type": "uint256"
        },
        {
          "internalType": "address",
          "name": "_voter",
          "type": "address"
        }
      ],
      "name": "getVoteStatus",
      "outputs": [
        {
          "internalType": "bool",
          "name": "",
          "type": "bool"
        }
      ],
      "stateMutability": "view",
      "type": "function",
      "constant": true
    },
    {
      "inputs": [
        {
          "internalType": "uint256",
          "name": "_id",
          "type": "uint256"
        }
      ],
      "name": "isExpired",
      "outputs": [
        {
          "internalType": "bool",
          "name": "",
          "type": "bool"
        }
      ],
      "stateMutability": "view",
      "type": "function",
      "constant": true
    },
    {
      "inputs": [
        {
          "internalType": "uint256",
          "name": "_id",
          "type": "uint256"
        }
      ],
      "name": "timeRemaining",
      "outputs": [
        {
          "internalType": "uint256",
          "name": "",
          "type": "uint256"
        }
      ],
      "stateMutability": "view",
      "type": "function",
      "constant": true
    }
  ],
  "bytecode": "0x608060405234801561001057600080fd5b506124fb806100206000396000f3fe6080604052600436106100c25760003560e01c80635f2ba6b21161007f578063c9d27afe11610059578063c9d27afe1461027b578063cdeed605146102a4578063d9548e53146102e1578063ea3d90201461031e576100c2565b80635f2ba6b21461020b5780637274e30d146102345780637326c9c01461025f576100c2565b8063141961bc146100c75780631b55e3381461010d5780632250226814610136578063278ecde11461015f5780634315b115146101885780635598f8cc146101c5575b600080fd5b3480156100d357600080fd5b506100ee60048036038101906100e9919061165f565b61035b565b6040516101049a99989796959493929190611daa565b60405180910390f35b34801561011957600080fd5b50610134600480360381019061012f919061165f565b6103f6565b005b34801561014257600080fd5b5061015d60048036038101906101589190611700565b610701565b005b34801561016b57600080fd5b506101866004803603810190610181919061165f565b6108d3565b005b34801561019457600080fd5b506101af60048036038101906101aa9190611688565b610ba1565b6040516101bc91906121dd565b60405180910390f35b3480156101d157600080fd5b506101ec60048036038101906101e7919061165f565b610bfe565b6040516102029a99989796959493929190611e46565b60405180910390f35b34801561021757600080fd5b50610232600480360381019061022d919061165f565b610cbe565b005b34801561024057600080fd5b50610249610f11565b60405161025691906121dd565b60405180910390f35b6102796004803603810190610274919061165f565b610f17565b005b34801561028757600080fd5b506102a2600480360381019061029d91906116c4565b611246565b005b3480156102b057600080fd5b506102cb60048036038101906102c69190611688565b611550565b6040516102d89190611ee2565b60405180910390f35b3480156102ed57600080fd5b506103086004803603810190610303919061165f565b6115ba565b6040516103159190611ee2565b60405180910390f35b34801561032a57600080fd5b506103456004803603810190610340919061165f565b6115db565b60405161035291906121dd565b60405180910390f35b60006020528060005260406000206000915090508060000160009054906101000a900473ffffffffffffffffffffffffffffffffffffffff16908060010154908060020154908060030154908060040154908060050160009054906101000a900460ff169080600801549080600901549080600a0160009054906101000a900460ff169080600a0160019054906101000a900460ff1690508a565b80600080828152602001908152602001600020600a0160019054906101000a900460ff16610459576040517f08c379a000000000000000000000000000000000000000000000000000000000815260040161045090611efd565b60405180910390fd5b600080600084815260200190815260200160002090508060000160009054906101000a900473ffffffffffffffffffffffffffffffffffffffff1673ffffffffffffffffffffffffffffffffffffffff163373ffffffffffffffffffffffffffffffffffffffff1614610501576040517f08c379a00000000000000000000000000000000000000000000000000000000081526004016104f8906120fd565b60405180910390fd5b80600101548160020154101561054c576040517f08c379a00000000000000000000000000000000000000000000000000000000081526004016105439061213d565b60405180910390fd5b80600a0160009054906101000a900460ff1661059d576040517f08c379a000000000000000000000000000000000000000000000000000000000815260040161059490611f9d565b60405180910390fd5b80600901548160080154116105e7576040517f08c379a00000000000000000000000000000000000000000000000000000000081526004016105de906121bd565b60405180910390fd5b8060050160009054906101000a900460ff1615610639576040517f08c379a000000000000000000000000000000000000000000000000000000000815260040161063090611f5d565b60405180910390fd5b60018160050160006101000a81548160ff0219169083151502179055508060000160009054906101000a900473ffffffffffffffffffffffffffffffffffffffff1673ffffffffffffffffffffffffffffffffffffffff166108fc82600201549081150290604051600060405180830381858888f193505050501580156106c4573d6000803e3d6000fd5b507ffad629533a8eaded67c8b7f9fc7184a01ce682c999676eb2bacbe99800bd6729836040516106f491906121dd565b60405180910390a1505050565b60008211610744576040517f08c379a000000000000000000000000000000000000000000000000000000000815260040161073b9061217d565b60405180910390fd5b60008111610787576040517f08c379a000000000000000000000000000000000000000000000000000000000815260040161077e90611fdd565b60405180910390fd5b6001600081548092919061079a90612408565b9190505550600080600060015481526020019081526020016000209050338160000160006101000a81548173ffffffffffffffffffffffffffffffffffffffff021916908373ffffffffffffffffffffffffffffffffffffffff160217905550828160010181905550428160030181905550620151808261081b9190612320565b4261082691906122ca565b8160040181905550600181600a0160016101000a81548160ff02191690831515021790555060008160050160006101000a81548160ff021916908315150217905550600081600a0160006101000a81548160ff0219169083151502179055507f532ce22d86c3d75e9e14507fdc84d53517c2726edb5c97af3c34fb362233b0716001543385846003015485600401546040516108c6959493929190612266565b60405180910390a1505050565b80600080828152602001908152602001600020600a0160019054906101000a900460ff16610936576040517f08c379a000000000000000000000000000000000000000000000000000000000815260040161092d90611efd565b60405180910390fd5b6000806000848152602001908152602001600020905080600401544211610992576040517f08c379a00000000000000000000000000000000000000000000000000000000081526004016109899061201d565b60405180910390fd5b80600101548160020154106109dc576040517f08c379a00000000000000000000000000000000000000000000000000000000081526004016109d390611f7d565b60405180910390fd5b8060050160009054906101000a900460ff1615610a2e576040517f08c379a0000000000000000000000000000000000000000000000000000000008152600401610a259061215d565b60405180910390fd5b60008160060160003373ffffffffffffffffffffffffffffffffffffffff1673ffffffffffffffffffffffffffffffffffffffff16815260200190815260200160002054905060008111610ab7576040517f08c379a0000000000000000000000000000000000000000000000000000000008152600401610aae906120dd565b60405180910390fd5b60008260060160003373ffffffffffffffffffffffffffffffffffffffff1673ffffffffffffffffffffffffffffffffffffffff1681526020019081526020016000208190555080826002016000828254610b12919061237a565b925050819055503373ffffffffffffffffffffffffffffffffffffffff166108fc829081150290604051600060405180830381858888f19350505050158015610b5f573d6000803e3d6000fd5b507f80b577b4fc190ab86d963549e29f496afd079c5d81a2480d61217d4b5060a28c843383604051610b939392919061222f565b60405180910390a150505050565b600080600084815260200190815260200160002060060160008373ffffffffffffffffffffffffffffffffffffffff1673ffffffffffffffffffffffffffffffffffffffff16815260200190815260200160002054905092915050565b60008060008060008060008060008060008060008d815260200190815260200160002090508060000160009054906101000a900473ffffffffffffffffffffffffffffffffffffffff1681600101548260020154836003015484600401548560050160009054906101000a900460ff1686600a0160009054906101000a900460ff168760080154886009015489600a0160019054906101000a900460ff169a509a509a509a509a509a509a509a509a509a50509193959799509193959799565b80600080828152602001908152602001600020600a0160019054906101000a900460ff16610d21576040517f08c379a0000000000000000000000000000000000000000000000000000000008152600401610d1890611efd565b60405180910390fd5b600080600084815260200190815260200160002090508060000160009054906101000a900473ffffffffffffffffffffffffffffffffffffffff1673ffffffffffffffffffffffffffffffffffffffff163373ffffffffffffffffffffffffffffffffffffffff1614610dc9576040517f08c379a0000000000000000000000000000000000000000000000000000000008152600401610dc09061203d565b60405180910390fd5b806001015481600201541015610e14576040517f08c379a0000000000000000000000000000000000000000000000000000000008152600401610e0b9061213d565b60405180910390fd5b80600a0160009054906101000a900460ff1615610e66576040517f08c379a0000000000000000000000000000000000000000000000000000000008152600401610e5d906120bd565b60405180910390fd5b8060050160009054906101000a900460ff1615610eb8576040517f08c379a0000000000000000000000000000000000000000000000000000000008152600401610eaf90611f5d565b60405180910390fd5b600181600a0160006101000a81548160ff0219169083151502179055507fe0a358d4a766346f1ece85d22e2197435d610d9638874a0fd6746e58a1b1f58a83604051610f0491906121dd565b60405180910390a1505050565b60015481565b80600080828152602001908152602001600020600a0160019054906101000a900460ff16610f7a576040517f08c379a0000000000000000000000000000000000000000000000000000000008152600401610f7190611efd565b60405180910390fd5b8160008082815260200190815260200160002060040154421115610fd3576040517f08c379a0000000000000000000000000000000000000000000000000000000008152600401610fca90611f3d565b60405180910390fd5b600080600085815260200190815260200160002090506000341161102c576040517f08c379a00000000000000000000000000000000000000000000000000000000081526004016110239061219d565b60405180910390fd5b8060050160009054906101000a900460ff161561107e576040517f08c379a00000000000000000000000000000000000000000000000000000000081526004016110759061209d565b60405180910390fd5b600081600201548260010154611094919061237a565b9050600081116110d9576040517f08c379a00000000000000000000000000000000000000000000000000000000081526004016110d09061211d565b60405180910390fd5b81600101543483600201546110ee91906122ca565b1061113a57803414611135576040517f08c379a000000000000000000000000000000000000000000000000000000000815260040161112c9061205d565b60405180910390fd5b611191565b816001015434836002015461114f91906122ca565b1115611190576040517f08c379a000000000000000000000000000000000000000000000000000000000815260040161118790611f1d565b60405180910390fd5b5b348260020160008282546111a591906122ca565b92505081905550348260060160003373ffffffffffffffffffffffffffffffffffffffff1673ffffffffffffffffffffffffffffffffffffffff16815260200190815260200160002060008282546111fd91906122ca565b925050819055507f4da4cfb37164d06502a029021919a2a499ea26897e6e9cc09fab01e7ca5b0e148533346040516112379392919061222f565b60405180910390a15050505050565b81600080828152602001908152602001600020600a0160019054906101000a900460ff166112a9576040517f08c379a00000000000000000000000000000000000000000000000000000000081526004016112a090611efd565b60405180910390fd5b6000806000858152602001908152602001600020905080600a0160009054906101000a900460ff16611310576040517f08c379a00000000000000000000000000000000000000000000000000000000081526004016113079061207d565b60405180910390fd5b60008160060160003373ffffffffffffffffffffffffffffffffffffffff1673ffffffffffffffffffffffffffffffffffffffff1681526020019081526020016000205411611394576040517f08c379a000000000000000000000000000000000000000000000000000000000815260040161138b90611fbd565b60405180910390fd5b8060070160003373ffffffffffffffffffffffffffffffffffffffff1673ffffffffffffffffffffffffffffffffffffffff16815260200190815260200160002060009054906101000a900460ff1615611423576040517f08c379a000000000000000000000000000000000000000000000000000000000815260040161141a90611ffd565b60405180910390fd5b8060050160009054906101000a900460ff1615611475576040517f08c379a000000000000000000000000000000000000000000000000000000000815260040161146c90611f5d565b60405180910390fd5b821561149a5780600801600081548092919061149090612408565b91905055506114b5565b8060090160008154809291906114af90612408565b91905055505b60018160070160003373ffffffffffffffffffffffffffffffffffffffff1673ffffffffffffffffffffffffffffffffffffffff16815260200190815260200160002060006101000a81548160ff0219169083151502179055507ff2913dbe661ee2acc4a046d8fbcdc792373bda34c41c6086484b5345e5785e5f843385604051611542939291906121f8565b60405180910390a150505050565b600080600084815260200190815260200160002060070160008373ffffffffffffffffffffffffffffffffffffffff1673ffffffffffffffffffffffffffffffffffffffff16815260200190815260200160002060009054906101000a900460ff16905092915050565b60008060008381526020019081526020016000206004015442119050919050565b60008060008084815260200190815260200160002090508060040154421061160757600091505061161b565b428160040154611617919061237a565b9150505b919050565b60008135905061162f81612480565b92915050565b60008135905061164481612497565b92915050565b600081359050611659816124ae565b92915050565b60006020828403121561167157600080fd5b600061167f8482850161164a565b91505092915050565b6000806040838503121561169b57600080fd5b60006116a98582860161164a565b92505060206116ba85828601611620565b9150509250929050565b600080604083850312156116d757600080fd5b60006116e58582860161164a565b92505060206116f685828601611635565b9150509250929050565b6000806040838503121561171357600080fd5b60006117218582860161164a565b92505060206117328582860161164a565b9150509250929050565b611745816123c0565b82525050565b611754816123ae565b82525050565b611763816123d2565b82525050565b60006117766017836122b9565b91507f43616d706169676e20646f6573206e6f742065786973740000000000000000006000830152602082019050919050565b60006117b66025836122b9565b91507f496e766573746d656e7420776f756c64206578636565642063616d706169676e60008301527f20676f616c0000000000000000000000000000000000000000000000000000006020830152604082019050919050565b600061181c6012836122b9565b91507f43616d706169676e2068617320656e64656400000000000000000000000000006000830152602082019050919050565b600061185c6015836122b9565b91507f46756e647320616c726561647920636c61696d656400000000000000000000006000830152602082019050919050565b600061189c6010836122b9565b91507f476f616c207761732072656163686564000000000000000000000000000000006000830152602082019050919050565b60006118dc6011836122b9565b91507f566f74696e67206e6f74206f70656e65640000000000000000000000000000006000830152602082019050919050565b600061191c601a836122b9565b91507f4f6e6c7920636f6e7472696275746f72732063616e20766f74650000000000006000830152602082019050919050565b600061195c601f836122b9565b91507f4475726174696f6e206d7573742062652067726561746572207468616e2030006000830152602082019050919050565b600061199c600d836122b9565b91507f416c726561647920766f746564000000000000000000000000000000000000006000830152602082019050919050565b60006119dc6016836122b9565b91507f43616d706169676e20686173206e6f7420656e646564000000000000000000006000830152602082019050919050565b6000611a1c601c836122b9565b91507f4f6e6c792063726561746f722063616e206f70656e20766f74696e67000000006000830152602082019050919050565b6000611a5c6024836122b9565b91507f506c6561736520696e766573742065786163742072656d61696e696e6720616d60008301527f6f756e74000000000000000000000000000000000000000000000000000000006020830152604082019050919050565b6000611ac2600f836122b9565b91507f566f74696e67206e6f74206f70656e00000000000000000000000000000000006000830152602082019050919050565b6000611b026020836122b9565b91507f43616d706169676e2066756e64732068617665206265656e20636c61696d65646000830152602082019050919050565b6000611b426013836122b9565b91507f566f74696e6720616c7265616479206f70656e000000000000000000000000006000830152602082019050919050565b6000611b826012836122b9565b91507f4e6f2066756e647320746f20726566756e6400000000000000000000000000006000830152602082019050919050565b6000611bc2601c836122b9565b91507f4f6e6c792063726561746f722063616e20636c61696d2066756e6473000000006000830152602082019050919050565b6000611c02601d836122b9565b91507f43616d706169676e20676f616c20616c726561647920726561636865640000006000830152602082019050919050565b6000611c426010836122b9565b91507f476f616c206e6f742072656163686564000000000000000000000000000000006000830152602082019050919050565b6000611c826017836122b9565b91507f46756e64732068617665206265656e20636c61696d65640000000000000000006000830152602082019050919050565b6000611cc2601b836122b9565b91507f476f616c206d7573742062652067726561746572207468616e203000000000006000830152602082019050919050565b6000611d026024836122b9565b91507f506c6564676520616d6f756e74206d757374206265206772656174657220746860008301527f616e2030000000000000000000000000000000000000000000000000000000006020830152604082019050919050565b6000611d686011836122b9565b91507f566f746520756e7375636365737366756c0000000000000000000000000000006000830152602082019050919050565b611da4816123fe565b82525050565b600061014082019050611dc0600083018d61173c565b611dcd602083018c611d9b565b611dda604083018b611d9b565b611de7606083018a611d9b565b611df46080830189611d9b565b611e0160a083018861175a565b611e0e60c0830187611d9b565b611e1b60e0830186611d9b565b611e2961010083018561175a565b611e3761012083018461175a565b9b9a5050505050505050505050565b600061014082019050611e5c600083018d61174b565b611e69602083018c611d9b565b611e76604083018b611d9b565b611e83606083018a611d9b565b611e906080830189611d9b565b611e9d60a083018861175a565b611eaa60c083018761175a565b611eb760e0830186611d9b565b611ec5610100830185611d9b565b611ed361012083018461175a565b9b9a5050505050505050505050565b6000602082019050611ef7600083018461175a565b92915050565b60006020820190508181036000830152611f1681611769565b9050919050565b60006020820190508181036000830152611f36816117a9565b9050919050565b60006020820190508181036000830152611f568161180f565b9050919050565b60006020820190508181036000830152611f768161184f565b9050919050565b60006020820190508181036000830152611f968161188f565b9050919050565b60006020820190508181036000830152611fb6816118cf565b9050919050565b60006020820190508181036000830152611fd68161190f565b9050919050565b60006020820190508181036000830152611ff68161194f565b9050919050565b600060208201905081810360008301526120168161198f565b9050919050565b60006020820190508181036000830152612036816119cf565b9050919050565b6000602082019050818103600083015261205681611a0f565b9050919050565b6000602082019050818103600083015261207681611a4f565b9050919050565b6000602082019050818103600083015261209681611ab5565b9050919050565b600060208201905081810360008301526120b681611af5565b9050919050565b600060208201905081810360008301526120d681611b35565b9050919050565b600060208201905081810360008301526120f681611b75565b9050919050565b6000602082019050818103600083015261211681611bb5565b9050919050565b6000602082019050818103600083015261213681611bf5565b9050919050565b6000602082019050818103600083015261215681611c35565b9050919050565b6000602082019050818103600083015261217681611c75565b9050919050565b6000602082019050818103600083015261219681611cb5565b9050919050565b600060208201905081810360008301526121b681611cf5565b9050919050565b600060208201905081810360008301526121d681611d5b565b9050919050565b60006020820190506121f26000830184611d9b565b92915050565b600060608201905061220d6000830186611d9b565b61221a602083018561174b565b612227604083018461175a565b949350505050565b60006060820190506122446000830186611d9b565b612251602083018561174b565b61225e6040830184611d9b565b949350505050565b600060a08201905061227b6000830188611d9b565b612288602083018761174b565b6122956040830186611d9b565b6122a26060830185611d9b565b6122af6080830184611d9b565b9695505050505050565b600082825260208201905092915050565b60006122d5826123fe565b91506122e0836123fe565b9250827fffffffffffffffffffffffffffffffffffffffffffffffffffffffffffffffff0382111561231557612314612451565b5b828201905092915050565b600061232b826123fe565b9150612336836123fe565b9250817fffffffffffffffffffffffffffffffffffffffffffffffffffffffffffffffff048311821515161561236f5761236e612451565b5b828202905092915050565b6000612385826123fe565b9150612390836123fe565b9250828210156123a3576123a2612451565b5b828203905092915050565b60006123b9826123de565b9050919050565b60006123cb826123de565b9050919050565b60008115159050919050565b600073ffffffffffffffffffffffffffffffffffffffff82169050919050565b6000819050919050565b6000612413826123fe565b91507fffffffffffffffffffffffffffffffffffffffffffffffffffffffffffffffff82141561244657612445612451565b5b600182019050919050565b7f4e487b7100000000000000000000000000000000000000000000000000000000600052601160045260246000fd5b612489816123ae565b811461249457600080fd5b50565b6124a0816123d2565b81146124ab57600080fd5b50565b6124b7816123fe565b81146124c257600080fd5b5056fea2646970667358221220b4f4c962e0f97dc597628f01ccaac2b3700d8f12833e77b906cdfc6b6680fe5964736f6c63430008000033",
  "immutableReferences": {},
  "source": "// SPDX-License-Identifier: MIT\npragma solidity ^0.8.0;\n\ncontract Crowdfunding {\n    struct Campaign {\n        address payable creator;\n        uint256 goal;\n        uint256 pledged;\n        uint256 startTime;\n        uint256 endTime;\n        bool claimed;\n        mapping(address => uint256) pledges;\n        mapping(address => bool) hasVoted;\n        uint256 yesVotes;\n        uint256 noVotes;\n        bool votingOpen;\n        bool exists;\n    }\n\n    mapping(uint256 => Campaign) public campaigns;\n    uint256 public campaignCount;\n\n    event CampaignCreated(uint256 id, address creator, uint256 goal, uint256 startTime, uint256 endTime);\n    event PledgeReceived(uint256 id, address contributor, uint256 amount);\n    event VotingOpened(uint256 id);\n    event Voted(uint256 id, address voter, bool vote);\n    event FundsClaimed(uint256 id);\n    event FundsRefunded(uint256 id, address contributor, uint256 amount);\n\n    modifier campaignExists(uint256 _id) {\n        require(campaigns[_id].exists, \"Campaign does not exist\");\n        _;\n    }\n\n    modifier campaignActive(uint256 _id) {\n        require(block.timestamp <= campaigns[_id].endTime, \"Campaign has ended\");\n        _;\n    }\n\n    function createCampaign(uint256 _goal, uint256 _durationInDays) public {\n        require(_goal > 0, \"Goal must be greater than 0\");\n        require(_durationInDays > 0, \"Duration must be greater than 0\");\n\n        campaignCount++;\n        Campaign storage newCampaign = campaigns[campaignCount];\n        \n        newCampaign.creator = payable(msg.sender);\n        newCampaign.goal = _goal;\n        newCampaign.startTime = block.timestamp;\n        newCampaign.endTime = block.timestamp + (_durationInDays * 1 days);\n        newCampaign.exists = true;\n        newCampaign.claimed = false;\n        newCampaign.votingOpen = false;\n\n        emit CampaignCreated(\n            campaignCount, \n            msg.sender, \n            _goal, \n            newCampaign.startTime, \n            newCampaign.endTime\n        );\n    }\n\n    function pledge(uint256 _id) public payable campaignExists(_id) campaignActive(_id) {\n        Campaign storage campaign = campaigns[_id];\n        require(msg.value > 0, \"Pledge amount must be greater than 0\");\n        require(!campaign.claimed, \"Campaign funds have been claimed\");\n\n        uint256 remainingAmount = campaign.goal - campaign.pledged;\n        require(remainingAmount > 0, \"Campaign goal already reached\");\n\n        // If msg.value would complete the goal, require exact remaining amount\n        if (campaign.pledged + msg.value >= campaign.goal) {\n            require(msg.value == remainingAmount, \"Please invest exact remaining amount\");\n        } else {\n            // For partial investments, just ensure it doesn't exceed the goal\n            require(campaign.pledged + msg.value <= campaign.goal, \"Investment would exceed campaign goal\");\n        }\n\n        campaign.pledged += msg.value;\n        campaign.pledges[msg.sender] += msg.value;\n        emit PledgeReceived(_id, msg.sender, msg.value);\n    }\n\n    function openVoting(uint256 _id) public campaignExists(_id) {\n        Campaign storage campaign = campaigns[_id];\n        require(msg.sender == campaign.creator, \"Only creator can open voting\");\n        require(campaign.pledged >= campaign.goal, \"Goal not reached\");\n        require(!campaign.votingOpen, \"Voting already open\");\n        require(!campaign.claimed, \"Funds already claimed\");\n\n        campaign.votingOpen = true;\n        emit VotingOpened(_id);\n    }\n\n    function vote(uint256 _id, bool _vote) public campaignExists(_id) {\n        Campaign storage campaign = campaigns[_id];\n        require(campaign.votingOpen, \"Voting not open\");\n        require(campaign.pledges[msg.sender] > 0, \"Only contributors can vote\");\n        require(!campaign.hasVoted[msg.sender], \"Already voted\");\n        require(!campaign.claimed, \"Funds already claimed\");\n\n        if (_vote) {\n            campaign.yesVotes++;\n        } else {\n            campaign.noVotes++;\n        }\n        campaign.hasVoted[msg.sender] = true;\n\n        emit Voted(_id, msg.sender, _vote);\n    }\n\n    function claimFunds(uint256 _id) public campaignExists(_id) {\n        Campaign storage campaign = campaigns[_id];\n        require(msg.sender == campaign.creator, \"Only creator can claim funds\");\n        require(campaign.pledged >= campaign.goal, \"Goal not reached\");\n        require(campaign.votingOpen, \"Voting not opened\");\n        require(campaign.yesVotes > campaign.noVotes, \"Vote unsuccessful\");\n        require(!campaign.claimed, \"Funds already claimed\");\n\n        campaign.claimed = true;\n        campaign.creator.transfer(campaign.pledged);\n\n        emit FundsClaimed(_id);\n    }\n\n    function refund(uint256 _id) public campaignExists(_id) {\n        Campaign storage campaign = campaigns[_id];\n        require(block.timestamp > campaign.endTime, \"Campaign has not ended\");\n        require(campaign.pledged < campaign.goal, \"Goal was reached\");\n        require(!campaign.claimed, \"Funds have been claimed\");\n\n        uint256 amount = campaign.pledges[msg.sender];\n        require(amount > 0, \"No funds to refund\");\n\n        campaign.pledges[msg.sender] = 0;\n        campaign.pledged -= amount;\n\n        payable(msg.sender).transfer(amount);\n\n        emit FundsRefunded(_id, msg.sender, amount);\n    }\n\n    function getCampaign(uint256 _id) public view \n    returns (\n        address creator,\n        uint256 goal,\n        uint256 pledged,\n        uint256 startTime,\n        uint256 endTime,\n        bool claimed,\n        bool votingOpen,\n        uint256 yesVotes,\n        uint256 noVotes,\n        bool exists\n    ) {\n        Campaign storage campaign = campaigns[_id];\n        return (\n            campaign.creator,\n            campaign.goal,\n            campaign.pledged,\n            campaign.startTime,\n            campaign.endTime,\n            campaign.claimed,\n            campaign.votingOpen,\n            campaign.yesVotes,\n            campaign.noVotes,\n            campaign.exists\n        );\n    }\n\n    function getPledgeAmount(uint256 _id, address _contributor) public view \n    returns (uint256) {\n        return campaigns[_id].pledges[_contributor];\n    }\n\n    function getVoteStatus(uint256 _id, address _voter) public view \n    returns (bool) {\n        return campaigns[_id].hasVoted[_voter];\n    }\n\n    function isExpired(uint256 _id) public view returns (bool) {\n        return block.timestamp > campaigns[_id].endTime;\n    }\n\n    function timeRemaining(uint256 _id) public view returns (uint256) {\n        Campaign storage campaign = campaigns[_id];\n        if (block.timestamp >= campaign.endTime) {\n            return 0;\n        }\n        return campaign.endTime - block.timestamp;\n    }\n}",
  "sourcePath": "/Users/harshithkotian/Desktop/ethereum-crowdfunding/contracts/Crowdfunding.sol",
  "compiler": {
    "name": "solc",
    "version": "0.8.0+commit.c7dfd78e.Emscripten.clang"
  },
  "schemaVersion": "3.4.16",
  "updatedAt": "2024-10-27T06:36:48.107Z",
  "networkType": "ethereum",
  "devdoc": {
    "kind": "dev",
    "methods": {},
    "version": 1
  },
  "userdoc": {
    "kind": "user",
    "methods": {},
    "version": 1
  }
}